:020000040800F2
:10000000C806002059020008951900088D1900083B
:100010009119000861030008C519000800000000DC
:100020000000000000000000000000009D19000812
:10003000650300080000000099190008A1190008D4
:1000400073020008730200087302000873020008BC
:1000500073020008730200087302000873020008AC
:1000600073020008690300087302000873020008A5
:10007000730200087302000873020008730200088C
:10008000730200087302000873020008730200087C
:10009000730200087302000873020008730200086C
:1000A000730200087302000873020008730200085C
:1000B000B9190008000000000000000073020008E9
:1000C000730200087302000873020008730200083C
:1000D000730200087302000873020008730200082C
:1000E0007302000873020008000000000000000016
:1000F0000000000000000000000000000000000000
:1001000000000000730200080000000073020008F5
:1001100000000000000000007302000873020008E5
:1001200073020008730200087302000873020008DB
:100130007302000800000000000000000000000042
:100140007302000873020008730200080000000038
:1001500073020008730200087302000873020008AB
:100160007302000873020008730200080000000018
:100170007302000873020008000000000000000085
:1001800073020008730200087302000800F002F80E
:1001900000F052F814A696E8000CB244B344DA45D5
:1001A00001D100F049F8BAE80F000FA696E8300038
:1001B000A5EB040504EB0607AAEB0704A7F101076A
:1001C0004FEA15154FEA3414A4F10104AC4201D3EF
:1001D00000F032F813F0010F18BFFB1A43F00103CF
:1001E00000F001F8DBE71847DC1F0000FC1F0000EF
:1001F000103A24BF78C878C1FAD8520724BF30C853
:1002000030C144BF04680C607047000070470000B4
:100210000023002400250026103A28BF78C1FBD80F
:10022000520728BF30C148BF0B6070471FB501F0AF
:100230009CFF1FBD10B510BD00F058F81146FFF728
:10024000F5FF01F0C1FB00F076F803B4FFF7F2FF11
:1002500003BC00F07DF800000948804709480047CA
:10026000FEE7FEE7FEE7FEE7FEE7FEE7FEE7FEE766
:10027000FEE7FEE704480549054A064B70470000C3
:10028000A51900088D010008C8000020C80600203C
:10029000C8020020C80200204FF0000200B513463B
:1002A00094469646203922BFA0E80C50A0E80C5096
:1002B000B1F12001BFF4F7AF090728BFA0E80C5047
:1002C00048BF0CC05DF804EB890028BF40F8042B40
:1002D00008BF704748BF20F8022B11F0804F18BFAD
:1002E00000F8012B7047704770477047754600F063
:1002F0002BF8AE4605006946534620F007008546B8
:1003000018B020B5FFF7B6FFBDE820404FF000065B
:100310004FF000074FF000084FF0000BAC46ACE880
:10032000C009ACE8C009ACE8C009ACE8C00921F0DC
:1003300007018D46704710B50446AFF30080204694
:10034000BDE81040FFF781BF00487047180000204B
:1003500001491820ABBEFEE72600020070470000EE
:10036000FEE7000070470000082000F003B800001E
:100370007047000040F21441C4F201010A680242D1
:1003800014BF08607047FFF7F3BF00002DE9F04F7E
:1003900082B00D68002D00F0C58000F13847860559
:1003A00046EA972741F20006C4F60006072240F20B
:1003B000004EB04208BF0422C4F2010E042F38BF21
:1003C0003A464FF0000C012400270026009209E075
:1003D0000D68013635FA06F207F102070CF1040C3C
:1003E00000F0A08004FA06FB15EA0B08F0D0D1F863
:1003F00004A003230AF003056A1EBB40012A6FEA2A
:1004000003090FD88268CB6802EA0902BB401A438D
:1004100082604268CAF3001322EA0B02B3401A4317
:10042000426003E0032D01D103251FE0C2688B6801
:1004300002EA0902BB401A43022DC26016D16FF0D6
:10044000030202EA560202440CF01C050F23D2F804
:1004500020A003FA05FB0B692AEA0B0AAB4043EA2A
:100460000A031362D1F804A00AF00305026805FA32
:1004700007F302EA09021A431AF4403F0260A7D0C8
:1004800041F26003C4F202031A684FF6084A42F0D0
:1004900001021A601A68CFF6FF7A02F00102019297
:1004A000019A26F00302724452F80A900CF00C05EF
:1004B0000F23009CAB4029EA030304FA05F52B4304
:1004C00042F80A30DEF808204B6842EA080540F29C
:1004D0000C49DC0258BF22EA0805CEF80850C4F2E5
:1004E0000109D9F800209D0242EA080458BF22EA17
:1004F0000804C9F80040DEF804209D0342EA08041D
:1005000058BF22EA0804CEF80440DEF80020DB03DE
:1005100042EA080458BF22EA0804CEF80040012449
:1005200056E700BF02B000F000B830BCBDE8C08F95
:100530000069084018BF0120704700001823002AF6
:1005400008BF2823C150704740F2C400C2F2000027
:100550000068704740F2000040F2C401C2F200009F
:10056000C2F2000100780A68104408607047000079
:1005700080B5032000F08AF80F2000F009F8002869
:100580001CBF012080BD00F029F8002080BD0000C4
:1005900070B540F20006C2F200063178E1B10446BF
:1005A00040F20800C2F200004FF47A720068B2FB19
:1005B000F1F1B0FBF1F000F0FBFD0F2C4FF0010565
:1005C00008D838B94FF0FF3021460022002500F04E
:1005D00031F87460284670BD012070BD82B041F2D0
:1005E0005800C4F20200816841F001018160816815
:1005F00001F0010101910199016841F08051016010
:10060000006800F080500090009802B07047000031
:10061000002848BF704700F01F01012202FA01F1D3
:100620001C2202EAD0004EF20012CEF200028150EB
:100630007047000010B54EF60C5CCEF2000CDCF8F2
:100640000030C3F3022E8EF00704042C28BF0424CC
:10065000BEF103034FF0FF3E0EFA04F438BF00234F
:10066000A14399400EFA03F39A43114300F00F029D
:1006700000F160430901043A03F564436244002831
:1006800048BF02F10C03197010BD00004EF60C516A
:10069000CEF200010A684FF6FF031A4060F30A2207
:1006A00042F0806040F0FD700860704747F2000142
:1006B000C4F200010A68B0F5007F02F4C06031D1D5
:1006C000B0F5007F2CD00868012262F34A20086050
:1006D00040F20800C2F200000068322250434DF69A
:1006E0008362C4F21B32A0FB0202900C4A695205DD
:1006F00011D5421C0FD04A6952050CD558B14A6930
:10070000520508D5012806D04A69520503D50228AA
:10071000A0F10400EAD14869400544BF03207047B6
:1007200000207047B0F5806FFAD00868022262F3AB
:100730004A2008600020704747F20000C4F2000021
:10074000006800F4C06070472DE9F04381B00028D4
:100750006BD042F20008C4F202080446D8F8000048
:100760000D4600F0070088420CD2D8F8000020F0B7
:1007700007002843C8F80000D8F8000000F0070080
:10078000A84252D1206841F2080910F00201C4F2D7
:1007900002090DD0A268D9F8003003F0F0039A42A4
:1007A00006D9D9F8003023F0F0031A43C9F8002025
:1007B000C2072DD169B1A168D9F8002002F0F0027A
:1007C000914206D2D9F8002022F0F0021143C9F874
:1007D0000010D8F8001001F00701A9420CD9D8F890
:1007E000001021F007012943C8F80010D8F80010C4
:1007F00001F00701A94218D141071BD4000723D4F7
:10080000D9F80000D9F8041010F00C002CD131E018
:10081000606800285ED0022800F07E80032840F047
:10082000818059F8081C890158D4012001B0BDE825
:10083000F08300BFD9F80010E26821F4E0611143B1
:10084000C9F800100007DBD5D9F80000216920F4B1
:10085000605040EAC100C9F80000D9F80000D9F89A
:10086000041010F00C0005D00C2829D101F0030170
:10087000012925D159F8081C090703D4D9F88C108F
:10088000090A02E059F8081C090942F2941201F021
:100890000F01C0F6000252F8211000280A4618BFC6
:1008A00000220C2871D1D9F8040000F003000228BE
:1008B00046D0032804BF41F20021C0F27A0143E090
:1008C000042857D008285BD141F20022C0F27A02F6
:1008D0005BE000BF59F8081C8907A6D5D9F80010BD
:1008E00021F003010843C9F80000FFF72DFE06467A
:1008F00041F28837D9F80000616800F00C00B0EBD5
:10090000810F15D0FFF720FE801BB842F2D90320DB
:1009100001B0BDE8F08300BF59F8081C89037FF5DA
:1009200084AFDBE759F8081C49057FF57EAFD5E7B2
:10093000206800F0020100297FF43DAF49E700BFC5
:1009400042F20041C0F2F401D9F80400D9F80420C1
:10095000C0F30210C2F306225143D9F8042001303B
:10096000B1FBF0F0C2F34161022202EB4101B0FBA6
:10097000F1F20AE042F20042C0F2F40205E000BFE8
:10098000002200210C283FF48EAFD9F8000042F27B
:100990008411C0F30310C0F60001085C00F01F00D2
:1009A00022FA00F140F20400C2F2000040F2080214
:1009B0000068C2F20002116001B0BDE8F043FFF729
:1009C000E7BD0000002804BF012070472DE9F04377
:1009D00083B041F200060446C4F20206B068F16832
:1009E000227800F00C09D00601F003081ED420780C
:1009F000C00700F08880B9F1080F00F07D80B9F1E0
:100A00000C0F08BFB8F1030F76D06068B0F5803FD7
:100A100007D0B0F5A02F40F05582306840F4802018
:100A20003060306840F48030306056E2B9F1000F39
:100A30001CD0B9F10C0F08BFB8F1010F16D0A16995
:100A40003068002900F0A08140F001003060FFF71D
:100A50007BFD05463068800700F1A881FFF774FD33
:100A6000401B02284FF00300F4D95CE33068800794
:100A700003D5A069002800F0EF82256A30680007DE
:100A800000F14A81D6F89400000900F0F000854298
:100A900000F248813068B9F1000F40F00800306082
:100AA000306820F0F00040EA050030607068E169CD
:100AB00020F47F4040EA0120706040F0BA82B06DBF
:100AC000C00000F15782B06D40F08050B065B06D4D
:100AD00000F0805002900298FFF72EFEB16D21F0D9
:100AE0008051B165B0F5007F00F04A82802D40F260
:100AF000878203208FE200BF3068800303D56068DF
:100B0000002800F0A982207880072DD5B9F1040FC4
:100B10001CD0B9F10C0F08BFB8F1020F16D0E16874
:100B20003068002900F0E88140F480703060FFF701
:100B30000BFD0546306840050FD4FFF705FD401B4F
:100B400002284FF00300F5D9EDE200BF3068400500
:100B500003D5E068002800F07F827068216920F0EA
:100B6000F85040EA016070602078000760D4207877
:100B7000400779D42078800600F1B280A06A00286E
:100B800000F01283022840F02381F068E16A00F04F
:100B900003028A4240F03481226B6FF00F0300F0B1
:100BA000700103EB0212914240F02A81616B00F464
:100BB000FE42B2EB012F40F02381A16B00F078429E
:100BC000B2EBC16F40F01C81E26B0023CFF6E07303
:100BD00003EA025200F4C001A2F50012914240F073
:100BE0000F81216C4FF07E4202EA016100F0C0608B
:100BF00001F17E41884240F003813068800100F1BC
:100C0000D382306840F080703060F06840F08070CF
:100C1000F060FFF799FC04463068800100F1C4825F
:100C2000FFF792FC001B02284FF00300F4D97AE290
:100C30006169D6F89400002900F0908040F001002E
:100C4000C6F89400FFF780FC054600BFD6F8940074
:100C500080078CD4FFF778FC401B0228F6D90320CC
:100C600003B0BDE8F08300BFB06D5FEAC00808D4F0
:100C7000B06D40F08050B065B06D00F080500090D5
:100C8000009847F20007C4F200073868C00513D483
:100C9000386840F480703860FFF756FC054600BFA6
:100CA0003868C00508D4FFF74FFC401B02284FF0FE
:100CB0000300F5D937E200BFA068012808D0052855
:100CC00040F0DE80D6F8900040F00400C6F89000B6
:100CD000D6F8900040F00100C6F89000DEE000BFBA
:100CE000616AD6F89800002900F0B48040F0010055
:100CF000C6F89800FFF728FC054600BFD6F8980014
:100D000080073FF53BAFFFF71FFC401B02284FF069
:100D10000300F3D907E200BF306800F0F00085421D
:100D20007FF6B8AEB06DC00000F18680B06D40F0C7
:100D30008050B065B06D00F0805001900198FFF7D1
:100D4000FBFCB16D21F08051B165B0F5007F79D029
:100D5000802D40F2E3800320EBE000BF20F0010093
:100D6000C6F89400FFF7F0FB054600BFD6F89400E4
:100D700080077FF5FCAEFFF7E7FB401B02284FF032
:100D80000300F3D9CFE100BF20F001003060FFF78E
:100D9000DBFB0546306880077FF529AEFFF7D4FB03
:100DA000401B02284FF00300F4D9BCE1306840F04A
:100DB000080030603068D4E9071220F0F0001043DA
:100DC0003060706820F47F4040EA012070600EE6D9
:100DD000B9F10C0F00F04081306820F08070306075
:100DE000FFF7B2FB044600BF3068800140F1EC80A1
:100DF000FFF7AAFB001B02284FF00300F4D992E191
:100E0000B9F10C0F00F028813068400100F1248115
:100E1000306820F080703060FFF796FB054600BF19
:100E20003068800140F18281FFF78EFB401B022871
:100E30004FF00300F4D976E1FFF77EFCB0F5007FB8
:100E40007FF486AF812D73D30120A02D88BF0220AF
:100E50006FE000BF20F00100C6F89800FFF774FBB8
:100E6000054600BFD6F8980080077FF587AEFFF7EC
:100E70006BFB401B02284FF00300F3D953E100BF86
:100E8000D6F89010002821F00101C6F89010D6F88D
:100E9000901021F00401C6F8901079D0FFF754FBB0
:100EA000054641F2883700BFD6F89000800700F170
:100EB0008180FFF749FB401BB842F5D9032003B0FE
:100EC000BDE8F0833168002821F480313160316859
:100ED00021F48021316000F08380FFF735FB054667
:100EE000306880033FF50FAEFFF72EFB401B6428F0
:100EF0004FF00300F4D916E120F480703060FFF762
:100F000023FB0546306840057FF52EAEFFF71CFB3E
:100F1000401B02284FF00300F4D904E1A5F1700052
:100F2000B0FA80F04009802D08BF022001E000BF28
:100F3000002042F20001C4F202010A6822F0070216
:100F400002440A60096801F00701814240F0848090
:100F5000306840F0080030603068D4E9071220F0B3
:100F6000F00010433060706820F47F4040EA0120B8
:100F700070605EE0FFF7E0FBB0F5007F7FF4B6AD98
:100F8000812D47D30120A02D88BF022043E000BF60
:100F9000FFF7DAFA054641F2883700BFD6F890002D
:100FA000800707D5FFF7D0FA401BB8424FF0030087
:100FB000F4D9B8E0B8F1000F3FF5DCADB06D20F02A
:100FC0008050B065D6E500BFF0684FF6FC71CFF6F3
:100FD000EE610840F060002003B0BDE8F08300BF80
:100FE000FFF7B2FA054600BF306880037FF58BAD8E
:100FF000FFF7AAFA401B64284FF00300F4D992E0EF
:10100000A5F17000B0FA80F04009802D08BF0220E1
:1010100001E000BF002042F20001C4F202010A68B0
:1010200022F0070202440A60096801F007018142C8
:1010300012D1B068F16810F00C0005D00C282BD14B
:1010400001F00301012927D13168090708D4D6F836
:101050009410090A06E000BF012003B0BDE8F08348
:101060003168090942F2941201F00F01C0F6000242
:1010700052F8211000280A4618BF00220C2837D148
:10108000F06800F00300022810D0032804BF41F2EA
:101090000021C0F27A010DE004281FD0082823D1D6
:1010A00041F20022C0F27A0222E000BF42F2004187
:1010B000C0F2F401F068F268C0F30210C2F3062235
:1010C0005143F2680130B1FBF0F0C2F341610222FA
:1010D00002EB4101B0FBF1F20AE000BF42F2004234
:1010E000C0F2F40204E000BF002200210C28C7D0A7
:1010F000B06842F28411C0F30310C0F60001085C2E
:1011000000F01F0022FA00F140F20400C2F20000D9
:1011100040F208020068C2F200021160FFF738FADC
:1011200000283FF464AC03B0BDE8F083F06848F2F7
:101130008C01C0F29D1104F12C0700EA010C8ECF46
:101140006FF00F00D4E90F5400EB02100022CFF62D
:10115000E07241EA0C0102EA05520843A2F50012CE
:101160004FF07E4540EA032005EA0465104305F18F
:101170007E4540EAC7602843F060306840F08070E8
:101180003060F06840F08070F060FFF7DDF90446F1
:101190003068800108D4FFF7D7F9001B02284FF010
:1011A0000300F5D9BFE700BF002003B0BDE8F0831E
:1011B000411E0020B0EB116F1CBF012070474EF2A2
:1011C0001002CEF2000251604EF62351CEF2000121
:1011D000F0230B700721906011607047704700008A
:1011E000704700007047000090F83C20012A4FF043
:1011F00002022DD010B580F83D20026842F6004C66
:101200005368D2F808E0C4F2010C624503D14C687F
:1012100023F4700323430C6823F070032343B2F1DB
:10122000804F536007D044F20003C4F201039A4296
:1012300001D0624504D189682EF080031943916082
:101240000121002280F83D1080F83C20BDE81040CC
:101250001046704790F83D10012929D1022180F8ED
:101260003D100168C868B1F1804F40F00100C860CE
:101270000BD044F20000C4F20100814205D042F6D6
:101280000040C4F2010081420CD188680722C0F2FC
:1012900001020240062A4FF000000AD0B2F5803F5A
:1012A00008BF7047086840F00100086000207047E0
:1012B0000120704770470000F0B581B00446006817
:1012C000C5680669B10717D515F0020114D06FF093
:1012D00002010161012121778069800704D0204645
:1012E000FFF7E8FF06E000BF204600F0C1F8204607
:1012F00000F038FB00202077700719D515F00400A6
:1013000016D020686FF00401016102212177806905
:1013100010F4407F04D02046FFF7CCFF06E000BF6A
:10132000204600F0A5F8204600F01CFB00202077A6
:10133000300717D515F0080014D020686FF00801A9
:10134000016104212177C069800703D02046FFF79F
:10135000B1FF05E0204600F08BF8204600F002FBCC
:1013600000202077F00619D515F0100016D020685F
:101370006FF01001016108212177C06910F4407FEE
:1013800004D02046FFF796FF06E000BF204600F09D
:101390006FF8204600F0E6FA00202077F00718BF2B
:1013A00015F0010004D1300605F080070BD412E0DF
:1013B00020686FF001010161204600F0D5FA300687
:1013C00005F0800707D537B120686FF08001016113
:1013D0002046FFF705FFF00507D537B120686FF409
:1013E000807101612046FFF7F9FE700609D515F0FE
:1013F000400006D020686FF040010161204600F0F7
:10140000C3FAB0060CD515F0200009D021686FF0A2
:10141000200220460A6101B0BDE8F040FFF7E2BEBD
:1014200001B0F0BD0068B0F1804F18BF704780B5C3
:1014300086B041F24C00C4F20200016841F00101A3
:1014400001600068022100F0010001900198012074
:10145000029100210190CDE90311059001A94FF0FF
:101460009040FEF793FF06B0BDE880407047000053
:1014700040F27801C2F20001884218BF704740F67E
:101480000000C4F600004FF400510122FFF756B8E7
:1014900090F83C30012B04BF022070474FEAB202A3
:1014A000052A61D82DE9F041DFE812F0060064005A
:1014B000B000FE003E017E01036842F600461D6A50
:1014C0001A6A25F0020522F001021A621A46D3F8C0
:1014D00004C052F818EF8F68D1F80080C4F20106FA
:1014E000B34245EA07050BD044F20047C4F20107B6
:1014F000BB4205D044F20007C4F20107BB4205D14C
:10150000CF6825F00C0527F004073D43B3420BD00C
:1015100044F20046C4F20106B34205D044F200068C
:10152000C4F20106B34206D1D1E905672CF4407438
:10153000264346EA070C4FF68C74CFF6FE740EEA8B
:10154000040747EA0807C3F804C09F614F680969A8
:101550005F631D629F6947F008079F619F6927F0DD
:1015600004079F6161E100BF0121002280F83C2057
:1015700008467047036842F600461F6A1A6A27F059
:10158000200722F010021A621A465D6852F818CF3E
:101590008C68C4F20106B34247EA041408D124F06F
:1015A000C00ECC686FF0400707EA041444EA0E044A
:1015B000D1F800E0B3420BD044F20046C4F2010679
:1015C000B34205D044F20006C4F20106B34206D18C
:1015D000D1E9056725F440653E4345EA860548F6AE
:1015E000FF46CFF6FF660CEA060747EA0E275D6066
:1015F0009F614F6809699F631C629F6947F4006798
:101600009F619F6927F480679F610DE1036842F63F
:1016100000461F6A1A6A27F4007722F480721A6261
:101620001A465D6852F81CCF8C68C4F20106B342BA
:1016300047EA042409D1CF6824F4406E3F0240F207
:10164000FF4427EA040444EA0E04D1F800E0B34260
:101650000BD044F20046C4F20106B34205D044F276
:101660000006C4F20106B34206D1D1E9056725F4AC
:1016700040553E4345EA06154FF68C76CFF6FE768A
:101680000CEA060747EA0E075D60DF614F680969EB
:10169000DF631C62DF6947F00807DF61DF6927F05D
:1016A0000407DF61C1E000BF036842F60047D3F8DA
:1016B00020C01A6AC4F2010722F480521A621A4644
:1016C0005D6852F81C4FD1F800E08E68BB420BD029
:1016D00044F20047C4F20107BB4205D044F20007C0
:1016E000C4F20107BB4204D14F6925F4804545EAA5
:1016F00087152CF4005747EA063748F6FF46CFF621
:10170000FF66264046EA0E265D60DE614E68096986
:101710001E641F62DF6947F40067DF61DF6927F439
:101720008067DF6180E000BF036842F60047D3F8BE
:1017300020C01A6AC4F2010722F480321A621A46E3
:101740005D6852F8544FD1F800E08E68BB420BD070
:1017500044F20047C4F20107BB4205D044F200073F
:10176000C4F20107BB4204D14F6925F4803545EA34
:1017700007252CF4003747EA06474FF68C76CFF65C
:10178000FE760336264046EA0E065D605E654E68CC
:1017900009699E651F625F6D47F008075F655F6DB1
:1017A00027F004075F6540E0036842F60047D3F87E
:1017B00020C01A6AC4F2010722F480121A621A4683
:1017C0005D6852F8544FD1F800E08E68BB420BD0F0
:1017D00044F20047C4F20107BB4205D044F20007BF
:1017E000C4F20107BB4204D14F6925F4802545EAC4
:1017F00087252CF4001747EA065748F6FF46CFF630
:10180000FF6606F54076264046EA0E265D605E6578
:101810004E680969DE651F625F6D47F400675F65AA
:101820005F6D27F480675F650902136819431160D3
:101830000021BDE8F041002280F83C2008467047B6
:10184000002804BF01207047B0B5044690F83D0061
:1018500028B9002084F83C00204600F063F80220FC
:1018600084F83D00206842F6004E0268C4F2010E82
:10187000704502D0B0F1804F03D1A36822F070020E
:101880001A4343F6FF73C4F2010344F2004C98423A
:10189000C4F2010C06DCB0F1804F0BD0704509D0CA
:1018A0000CE000BF604505D044F20003C4F2010320
:1018B000984203D1236922F440721A43A16922F0AD
:1018C00080026368E568114370450160C562836208
:1018D00018BF60451ED1616901630121416100208B
:1018E00084F8481084F83E1084F83F1084F84010C3
:1018F00084F8411084F8421084F8431084F84410AE
:1019000084F8451084F8461084F8471084F83D1098
:10191000B0BD00BF44F20001C4F201018842DAD038
:10192000DBE700000068B0F1804F18BF704780B55A
:1019300082B041F25800C4F202000168002241F076
:10194000010101600068002100F001000190019890
:101950001C20FEF76FFE1C2002B0BDE88040FEF7A1
:1019600057BE00007047000040F27801C2F200014B
:10197000884218BF704740F60000C4F600004FF4DC
:1019800000510122FEF7DABD70470000FEE70000BB
:10199000FEE70000FEE7000070470000704700000F
:1019A000FEF7D8BD4EF68850CEF20000016841F433
:1019B000700101607047000040F27800C2F2000040
:1019C000FFF77ABCFEE700009AB0FEF7D1FD09A848
:1019D00004302421FEF760FC4FF40070FEF766FE31
:1019E00020B1EFF3108072B6FEE700BF4FF48071B4
:1019F0000C9110210D91012115910A2102201691BF
:101A000007210990CDE91300CDE91710199009A815
:101A1000FEF7D8FF20B1EFF3108072B6FEE700BFEB
:101A20000F2004904FF00308002704A80421CDF8EC
:101A30001480CDE906770897FEF786FE20B1EFF314
:101A4000108072B6FEE700BF41F24C000D97C4F261
:101A50000200016840F2004A41F00401016001689F
:101A6000C4F6000A01F004010491049901680AF522
:101A7000806641F0010101600168002201F001016E
:101A800004910499016842F6306441F0020101605A
:101A9000006842F6306100F002000490049830467D
:101AA000FEF74CFD4FF0904049F24211002249F2FE
:101AB000421BFEF743FD5046302100224FF0300913
:101AC000FEF73CFD09AD0994012430462946CDE9D5
:101AD0000A470C97FEF75AFC4FF090402946CDE993
:101AE00009B4CDE90B77FEF751FC0820CDE90907D1
:101AF0004FF0904029460B97FEF748FC0C200990C8
:101B00004FF48810CDE90A0450462946FEF73EFC02
:101B100050462946CDE90994CDE90B77FEF736FC0E
:101B2000092000210022FEF785FD0920FEF770FD47
:101B300040F27800C2F200004FF0804140F2CA62E9
:101B40000597CDE90E77CDE90C77C0E90018C0E91B
:101B5000027207618761FFF773FE28B1EFF310800F
:101B600072B600BFFEE700BF40F278000024C2F268
:101B7000000004A904940694FFF736FB20B1EFF3AC
:101B8000108072B6FEE700BF6020099040F2653019
:101B9000CDE90A0440F27800C2F2000009A900224F
:101BA0000D94FFF775FC28B1EFF3108072B600BFFB
:101BB000FEE700BF40F27804C2F200042046FFF7BF
:101BC00031FC2046FFF746FB00204FF00A0A4FF099
:101BD000010B002502904FF00A080A244FF00A0971
:101BE000002717E001264FF00A090A244FF00A08DF
:101BF0004FF00A0A4FF0010B012002905FFA8AF0C1
:101C00005FFA88F1E2B25FFA89F30427009700F0E7
:101C100061F937464FF090400821FEF789FC002F0C
:101C2000064608BF012E0BD0012F08BF002E17D08B
:101C300056EA07001CD0029F002FDFD19EE000BFB4
:101C4000029E1DB90125FEF77FFC0190002EC9D030
:101C50005FFA8BF00126042888BF4FF0010BCBE719
:101C6000029F7DB3FEF770FC0390002FC6D185E084
:101C7000029F002D00F07680FEF766FC0399401A63
:101C8000052870D34FF0FF3050FA8BF003285FD84F
:101C9000DFE800F0021E344A019803994CF6CD4269
:101CA000081ACCF6CC42A0FB02014FF0FF3000EB4B
:101CB000D100A0FB0212D10801EB8101A0EB410A87
:101CC00046E000BF0025002F7FF498AF56E000BF2C
:101CD000019803994CF6CD42081ACCF6CC42A0FBF1
:101CE00002014FF0FF3000EBD100A0FB0212D1083F
:101CF00001EB8101A0EB41082AE000BF01980399A4
:101D00004CF6CD42081ACCF6CC42A0FB02014FF0B3
:101D1000FF3000EBD100A0FB0212D10801EB8101E2
:101D2000A0EB410414E000BF019803994CF6CD42AA
:101D3000081ACCF6CC42A0FB02014FF0FF3000EBBA
:101D4000D100A0FB0212D10801EB8101A0EB4109F7
:101D50000BF101005FFA80FBBBF1050F4FF00500AE
:101D600028BF834600254FB1FEF7EEFB0399401ACA
:101D700041F2883188427FF641AF00BF5FFA8AF0B6
:101D80005FFA88F1E2B25FFA89F30027009700F06A
:101D9000A1F816E00BF101005FFA80FBBBF1050F23
:101DA0004FF0050028BF834600255FFA8AF05FFAEE
:101DB00088F1E2B25FFA89F30026009600F08AF813
:101DC0003E464FF090400821FEF7B2FB002E07463A
:101DD00008BF012F00F07880012E08BF002F41D0EE
:101DE00057EA0600E1D1002DDED0FEF7ADFB0399E6
:101DF000401A0528D9D34FF0FF3050FA8BF0032852
:101E0000C8D8DFE800F019354B0300BF01980399EB
:101E10004CF6CD42081ACCF6CC42A0FB02014FF0A2
:101E2000FF3000EBD100A0FB0212D10801EB8101D1
:101E3000A0EB4109AEE700BF019803994CF6CD42F3
:101E4000081ACCF6CC42A0FB02014FF0FF3000EBA9
:101E5000D100A0FB0212D10801EB8101A0EB410AE5
:101E600098E700BF002D9FD0FEF76EFB03909CE724
:101E7000019803994CF6CD42081ACCF6CC42A0FB4F
:101E800002014FF0FF3000EBD100A0FB0212D1089D
:101E900001EB8101A0EB41087CE700BF01980399A9
:101EA0004CF6CD42081ACCF6CC42A0FB02014FF012
:101EB000FF3000EBD100A0FB0212D10801EB810141
:101EC000A0EB410466E700BF0026002D7FF4BEAE04
:101ED000B8E600002DE9F04F81B0144689468046EF
:101EE000DDF828A040F600054FF090404FF48851EF
:101EF00001221F46C4F60005FEF720FBA5F580660B
:101F0000304630210122FEF719FB28464FF4C66106
:101F10000122FEF713FBBAF1000F1FD04FF09040E3
:101F200048F202010022FEF709FB28464FF4006147
:101F30000022FEF703FB4FF0904040210122FEF704
:101F4000FDFA40F20C0BBAF1040FC2F2000B09D3F8
:101F50001BF8070000F0CAF816E000BF01B000F05F
:101F6000BCB800BF4FF090404FF488510122FEF7FB
:101F7000E5FA304630210122FEF7E0FA28464FF418
:101F8000C6610122FEF7DAFA4FF090404FF4885113
:101F90000122FEF7D3FA304630210122FEF7CEFAB5
:101FA00028464FF4C6610122FEF7C8FA4FF0904070
:101FB0004FF400410122FEF7C1FA4FF09040422158
:101FC0000022FEF7BBFA28464FF400610022FEF71C
:101FD000B5FABAF1030F05D31BF8040000F086F838
:101FE00012E000BF4FF090404FF488510122FEF7FD
:101FF000A5FA304630210122FEF7A0FA28464FF418
:10200000C6610122FEF79AFA4FF090404FF48851D2
:102010000122FEF793FA304630210122FEF78EFAB4
:1020200028464FF4C6610122FEF788FA48F20204FE
:1020300004F1400081B24FF090400022FEF77EFA9A
:1020400028464FF400610122FEF778FABAF1020F38
:1020500004D31BF8090000F049F811E04FF090405C
:102060004FF488510122FEF769FA304630210122EF
:10207000FEF764FA28464FF4C6610122FEF75EFAC5
:102080004FF090404FF488510122FEF757FA304646
:1020900030210122FEF752FA28464FF4C661012290
:1020A000FEF74CFA04F13E0081B24FF0904000225E
:1020B000FEF744FA28464FF400610022FEF73EFA8C
:1020C0004FF0904002210122FEF738FA1BF8080079
:1020D00001B000F005B800F009B830BCBDE8C08F11
:1020E00030BCBDE8C04FFFF7F6BF000070B540F64A
:1020F0000005C4F60005A5F58066044600F001025F
:1021000030462021FEF71AFAC4F34002304610216F
:10211000FEF714FAC4F3800228464FF40071FEF76C
:102120000DFAC4F3C00228462021FEF707FAC4F3D3
:1021300000124FF090404FF48071FEF7FFF9C4F3A6
:10214000401228464FF48061FEF7F8F9C4F380127C
:102150004FF090404FF48051FEF7F0F9E209284625
:102160001021BDE87040FEF7E9B9F1EE100A4FF614
:10217000FF71C0F2C03120EA010040F04070E1EE92
:10218000100A704700000000000000000102030474
:1021900006070809A0860100400D0300801A06000A
:1021A00000350C0040420F0080841E0000093D00F5
:1021B00000127A000024F40000366E010048E801A5
:1021C000006CDC02E821000800000020180000007C
:1021D000F00100080022000818000020B0060000EE
:1021E00010020008000000000100000010000000C4
:1021F00000093D00C0F9A4B0999282F88090BFFF19
:040000050800018D61
:00000001FF
